:020000040800F2
:10000000C81A0020050100085D060008D504000894
:100010000906000871010008A90F0008000000008F
:100020000000000000000000000000007D0B000840
:10003000C101000800000000590B0008890C0008ED
:100040001F0100081F0100081F0100081F01000810
:100050001F0100081F0100081F0100081F01000800
:100060001F0100081F0100081F0100081F010008F0
:100070001F0100081F0100081F0100081F010008E0
:100080001F0100081F0100081F0100081F010008D0
:100090001F0100081F0100081F0100081F010008C0
:1000A0001F0100081F0100081F0100081F010008B0
:1000B0001F0100081F0100081F0100081F010008A0
:1000C0001F0100081F0100081F0100081F01000890
:1000D0001F0100081F0100081F0100081F01000880
:1000E0001F0100081F0100081F010008DFF810D0E1
:1000F00000F02CF80048004719100008AFF300800A
:10010000C81A00200648804706480047FEE7FEE779
:10011000FEE7FEE7FEE7FEE7FEE7FEE7FEE7FEE7B7
:10012000910C0008ED000008D2B201E000F8012BAC
:10013000491EFBD270470022F6E710B513460A4667
:1001400004461946FFF7F0FF204610BD064C074D48
:1001500006E0E06840F0010394E807009847103497
:10016000AC42F6D3FFF7C6FF341B0008541B00084F
:1001700000BFFEE730B50F2817DA0C4A02EBC002C9
:10018000D2E90042631842F10002084C04EBC004BB
:10019000C4E90032054A083AD2E90042641842F143
:1001A0000002024B083BC3E9004230BDD8110020D9
:1001B0000121024841743221C1617047340000209E
:1001C0007047000030B51449B1F1807F01D30120A0
:1001D0001DE021F07F40401E4FF0E022506150179B
:1001E0000F22002807DA13071D0E0C4B00F00F0436
:1001F000241F1D5503E013071C0E094B1C5400BFA0
:1002000000204FF0E02290610720106100200128BB
:1002100001D100BFFEE730BD4019010018ED00E03C
:1002200000E400E010B500BF064B1B681A4600BF93
:1002300000BF044B1B689B1A00241B1A8C41F7D388
:1002400010BD00001C0000202DE9F04102460025F1
:100250000026002000230024002791F803C00CF0A2
:100260000F0591F803C00CF0100CBCF1000F03D087
:1002700091F802C04CEA050591F800C0BCF1000FEE
:1002800031D0146800202BE04FF0010C0CFA00F381
:10029000B1F800C00CEA03069E4220D183004FF063
:1002A0000F0C0CFA03F7BC4305FA03FC4CEA0404F8
:1002B00091F803C0BCF1280F06D14FF0010C0CFAE5
:1002C00000FCC2F814C00AE091F803C0BCF1480F6A
:1002D00005D14FF0010C0CFA00FCC2F810C0401C14
:1002E0000828D1D31460B1F800C0BCF1FF0F34DD91
:1002F000546800202EE000F1080C4FF0010808FAC5
:100300000CF3B1F800C00CEA03069E4221D1830031
:100310004FF00F0C0CFA03F7BC4305FA03FC4CEA50
:10032000040491F803C0BCF1280F05D100F1080CBA
:1003300008FA0CF8C2F8148091F803C0BCF1480F19
:1003400007D100F1080C4FF0010808FA0CF8C2F8C8
:100350001080401C0828CED35460BDE8F081000016
:10036000F0B50A46002300240021002500F00046D5
:10037000B6F1004F02D11D4EF16901E01B4E7168CC
:10038000C0F3034583B200F44016B6F5401F08D110
:1003900021F07061154E766826F07066134F7E600E
:1003A00012E000F48016B6F5801F06D1032606FA87
:1003B00005F4A14341F0706106E0460D360103FAF1
:1003C00006F6B14341F0706122B1460D360103FAE1
:1003D00006F6314300F00046B6F1004F02D1034E5D
:1003E000F16101E0014E7160F0BD000000000140CC
:1003F0000246002093680B400BB1012000E0002072
:100400007047016170470AB1016100E041617047C6
:1004100010B500244FF400412C48FFF7E9FF88B9DC
:1004200014200021FFF7FEFE00BF4FF400412748D3
:10043000FFF7DEFF0028F8D014200021FFF7F2FEBE
:10044000012440E008212248FFF7D2FF80B91420A0
:100450000021FFF7E7FE00BF08211D48FFF7C8FF96
:100460000028F9D014200021FFF7DCFE02242AE046
:1004700010211748FFF7BCFF80B914200021FFF7B7
:10048000D1FE00BF10211248FFF7B2FF0028F9D0BB
:1004900014200021FFF7C6FE032414E020210C489D
:1004A000FFF7A6FF78B914200021FFF7BBFE00BFBD
:1004B00020210748FFF79CFF0028F9D014200021D5
:1004C000FFF7B0FE0424204610BD000000080140E4
:1004D000000C014000BFFEE7024841698161002134
:1004E000416170473400002010B500F0D1FBFFF7E8
:1004F00069FE00F0F7F800F067F800F02DF8FFF75C
:1005000057FE00F083F800F04BFC00F069FC10BDD2
:10051000002181600F49096829B10E4A41681268BB
:100520005268914205D20B49096881600949086007
:100530000EE0084A116800E089688A6822B18A687A
:10054000526843689A42F7D98A688260886000BF1F
:10055000704700003000002008B501210C2000F099
:10056000FDFA0121084600F0F9FA01211348FFF7CE
:10057000F7FE48208DF8030003208DF802004FF4A9
:100580000040ADF8000069460D48FFF75DFE082009
:10059000ADF8000069460B48FFF756FE1020ADF895
:1005A000000069460748FFF74FFE2020ADF8000025
:1005B00069460448FFF748FE08BD0000000230000D
:1005C00000080140000C014008B50121042000F0A2
:1005D000C5FA10208DF803000120ADF800000320BB
:1005E0008DF8020069460348FFF72EFE00F004F87C
:1005F00008BD00000008014010B501210148FFF7C7
:1006000000FF10BD0008014000BFFEE7002004E02D
:10061000002205490A54411CC8B22028F8DB2020DA
:10062000024981F820047047A4160020A41200207B
:1006300010B5FFF7EDFE084988740846807C012854
:1006400004D0022803D0032803D101E002E001E036
:1006500000E000BF00BF10BD340000207047000064
:1006600010B54FF4806102480068FFF764FD10BDCB
:100670000C00002070B50546002411E080212141C6
:10068000294009B1012100E00021084600F05AFA92
:10069000012000F04DFA002000F04AFA601CC4B2BC
:1006A000082CEBDB012000F043FA002000F040FAB8
:1006B00070BD10B5012000F045FA012000F038FAB5
:1006C000002000F03FFA002000F032FA10BD10B513
:1006D000002000F037FA012000F02AFA012000F093
:1006E00031FA10BD08B5002006E0002100E0491CE9
:1006F000B1F57A7FFBD3401CB0F57A7FF5D30121A9
:10070000082000F02BFA14208DF8030003208DF848
:100710000200C020ADF8000069463348FFF794FDA1
:10072000012000F005FA012000F00CFA0021AE20B3
:1007300000F0EFF90021402000F0EBF90021B0209B
:1007400000F0E7F90021C82000F0E3F90021812042
:1007500000F0DFF90021FF2000F0DBF90021A120EB
:1007600000F0D7F90021A62000F0D3F90021A8203D
:1007700000F0CFF900213F2000F0CBF90021D32079
:1007800000F0C7F90021084600F0C3F90021D52088
:1007900000F0BFF90021F02000F0BBF90021D920C2
:1007A00000F0B7F90021222000F0B3F90021DA208F
:1007B00000F0AFF90021122000F0ABF90021DB209E
:1007C00000F0A7F90021492000F0A3F900218D20B5
:1007D00000F09FF90021142000F09BF90021AF20C8
:1007E00000F097F908BD0000000C014070B5044608
:1007F0000D4645F0B00000F0D9FB102141EA24106D
:1008000000F0D4FB04F00F0000F0D0FB70BD00003E
:100810002DE9FF4F91B004460D46164600BF2EB19C
:10082000149919B1802C01DA402D02DB15B0BDE816
:10083000F08F00BF1E9901B9F8E7002C01DA002102
:1008400000E021461091002D01DA002100E0294648
:100850000846002C01DA311900E031460BB2002DB8
:1008600002DA1499294400E014990FB2002B06DD36
:10087000002F04DD1099802901DA402800DBD5E73C
:10088000002B00DA0023002F00DA0027109919440A
:10089000802903DD1099C1F180010BB2C1194029F3
:1008A00002DDC0F140010FB2002B01DD002F00DCA2
:1008B000BCE7002C01DA614200E0002109B20F918F
:1008C000002D01DA694200E0002109B20E910146D3
:1008D000C21700EB5272C2F3C7020D92C21700EBAF
:1008E0005272D210A0EBC202D2B20C920C9A3A44CD
:1008F000D11DCA1701EB5272C2F3C7020B92149AB0
:1009000006FB02F10A914FF0000CDDE00D9A624403
:10091000D2B20992099A082A00DBD9E06E4AD2F8CD
:100920000090099A09EBC218099A072A07DA6A4A5D
:10093000D2F80090099A521C09EBC21200E0002282
:1009400008920E9A02EBCC090C9AA9EB020211B2A2
:10095000002901DA002200E00A4611460A464FEA61
:10096000E17901EB5979C9F3C709CDF81C904FEA39
:10097000E17901EB59794FEAE909A1EBC90909F0DD
:10098000FF09CDF81890BCF1000F01D10C9A00E0DE
:1009900000220592079A72430492002203928BE090
:1009A000DDF83CB0DDF810A0D344DDF80CA0DA444B
:1009B0001FFA8AFACDF808A0DDF828B0DDF808A003
:1009C000DA4500DB74E0DDF808B0DDF878A01AF84D
:1009D0000BA0CDF804A04FF0000ACDF800A0DDF880
:1009E00018A0BAF1000F18D0DDF81CA00AF1010A16
:1009F000DDF850B0BBEBCA0F0FDDDDF808B0B34433
:100A00001FFA8BFADDF828B0DA4505DADDF878B0A0
:100A10001BF80AB0CDF800B000BFDDF818A0BAF19D
:100A2000000F02D1DDF804900FE0DDF818B0DDF81A
:100A300004A04AFA0BFACBF1080EDDF800B00BFA6D
:100A40000EFB4AEA0B0A0AF0FF09DDF80CB0DDF8EC
:100A500040A0DA440FFA8AF2DDF814A0BAF1000FD0
:100A600006D118F802A04AEA090A08F802A01EE016
:100A700018F802A0DDF814B009FA0BFB4AEA0B0AD9
:100A800008F802A0DDF820A0BAF1000F0FD0DDF8C1
:100A900020A01AF802A0DDF814B0CBF1080B49FA37
:100AA0000BFB4AEA0B0BDDF820A00AF802B000BFEE
:100AB000039A521C12B20392039A9A42FFF670AF45
:100AC0000CF1010101F0FF0C0B998C45FFF61EAFF4
:100AD00000BF00BFAAE600000C00002010B50024F3
:100AE0000CE021460020FFF781FE0649096801EB72
:100AF000C410802100F06AFA601CC4B2082CF0DB3C
:100B000010BD00000C00002010B5FFF7E7FF00202B
:100B100010BD38B504460D461DB9204600F046FA12
:100B200005E000940121684600F050FA00BF38BD8E
:100B300010B50446224640210148FFF764FC10BD71
:100B4000000C014010B50446224680210148FFF701
:100B50005AFC10BD000C01407047000029B1064A44
:100B600092690243044B9A6104E0034A926982430A
:100B7000014B9A617047000000100240704710B5A9
:100B800000F002F810BD00000CB5002001900090AC
:100B90003348006840F480303149086000BF304875
:100BA000006800F4003000900198401C019000980B
:100BB00018B90198B0F5A06FF1D12948006800F488
:100BC000003010B10120009001E00020009000985A
:100BD000012843D12348006840F0100021490860F3
:100BE0000846006820F0030008600846006840F0EE
:100BF000020008601A484068194948600846406881
:100C000048600846406840F4806048600846406894
:100C100020F47C1048600846406840F4E8104860C2
:100C20000846006840F08070086000BF0C4800680B
:100C300000F000700028F9D00948406820F0030057
:100C4000074948600846406840F00200486000BF1D
:100C50000348406800F00C000828F9D10CBD0000E2
:100C6000001002400020024008B5FFF74DFFFFF7DB
:100C7000F7FC044808231A46002100900846FFF7B5
:100C8000C7FD08BD0E1B000810B500F085F910BDAA
:100C900010B51348006840F001001149086008468B
:100CA0004068104908400E494860084600680E49EF
:100CB00008400B4908600846006820F4802008605E
:100CC0000846406820F4FE0048604FF41F0088602A
:100CD000FFF755FF4FF000600449086010BD0000A9
:100CE000001002400000FFF8FFFFF6FE08ED00E0F4
:100CF0002DE9F04106460F46904616B9FF20BDE8A3
:100D0000F081002441E0234800EB4410007FC8BB81
:100D100000F098F805460DB9FF20F0E71D4800EBFC
:100D2000441006601B4800EB441047601A480068F6
:100D3000184901EB441188600020164901EB441169
:100D4000C860144901EB44110861124901EB4411D8
:100D50000875104800EB4410C0F8188001200D49B8
:100D600001EB441108772C700B4800683844686028
:100D70000020A8602846FFF7CBFB084840F8245025
:100D80002046BCE7FFE7601CC4B20F2CBBDBFF2092
:100D9000B5E70000780E00201C000020581000204D
:100DA00010B54FF4F0710A48FFF7C5F9002005E0CF
:100DB0000021084A42F82010411CC8B20F28F7DB76
:100DC00078210548FFF7B7F900200449086010BDF5
:100DD000780E00205810002058110020300000200C
:100DE00010B50BA20A210C48FFF782FF0B490870CF
:100DF0000BA232210D48FFF77BFF0D4908700DA2B1
:100E00004FF47A710D48FFF773FF0D49087010BD5C
:100E10004B65795363616E003106000800000020C5
:100E200053686F774461746100000000690C00082A
:100E300003000020495744475F494400D904000893
:100E400004000020002116E00D48405C88B9012014
:100E50000B4A505401EB41000A4A02EB8000002289
:100E600002604260826001EB4100064A02EB8000B2
:100E70007047481CC1B20F29E6DB0020F8E70000EC
:100E8000481100209410002070B1084A821A0C23E7
:100E900092FBF3F2D1B20F2905DA0022044B5A5427
:100EA00002604260826000BF704700009410002022
:100EB000481100202DE9F04157E0324807683D789D
:100EC0003049B86808600F2D4BDA2F4800EB451405
:100ED000207F002837D0207D002834D12B48D0F83F
:100EE000008001202075206808B1206880472748CD
:100EF0000068A0EB08062661E068B04200D2E66018
:100F000031462846FFF736F920480068A060207D6A
:100F1000022817D000202075606858B93846FFF7BE
:100F2000B3FF00201A4941F825002077194901F83C
:100F3000350007E01549606809680844786038465C
:100F4000FFF7E6FA0CE0207F18B13846FFF7E0FA29
:100F500006E03846FFF798FF00200D4941F82500CC
:100F600002E03846FFF790FF00BF0648006830B146
:100F70000448006840680549096888429DD9BDE871
:100F8000F081000030000020780E00201C000020BE
:100F9000581000205811002002480068401C0149E8
:100FA000086070471C00002000BFFEE710B5044633
:100FB000FFF77FFB7820FFF75DFB0020FFF75AFB70
:100FC0002046FFF757FBFFF782FB10BD70B50546C3
:100FD0000E46FFF76EFB7820FFF74CFB4020FFF733
:100FE00049FB002404E0285DFFF744FB601CC4B209
:100FF000B442F8DBFFF76BFB70BD02E008C8121FBC
:1010000008C1002AFAD170477047002001E001C1F1
:10101000121F002AFBD17047FFF766FA00BF06488F
:10102000006800BF06E005484069401C034948616C
:10103000FFF740FFF7E700001C000020340000200D
:1010400000000000000000000000000000000000A0
:10105000000000F800000000000000333000000035
:1010600000160E00160E0000000000000000000038
:1010700040C07840C0784000043F04043F040400AE
:10108000007088FC08300000001820FF211E0000BE
:10109000F008F000E018000000211C031E211E00D3
:1010A00000F00888700000001E2123241927211059
:1010B000000000160E00000000000000000000000C
:1010C000000000E0180402000000000718204000A3
:1010D00000020418E0000000004020180700000093
:1010E000404080F0804040000202010F01020200F7
:1010F000000000F0000000000101011F01010100DB
:10110000000000000000000000B0700000000000BF
:1011100000000000000000000001010101010101C8
:10112000000000000000000000303000000000005F
:101130000000000080601804006018060100000034
:1011400000E010080810E000000F102020100F0031
:10115000001010F8000000000020203F20200000B8
:101160000070080808887000003028242221300010
:1011700000300888884830000018202020110E0018
:101180000000C02010F8000000070424243F2400C1
:1011900000F80888880808000019212020110E0096
:1011A00000E0108888180000000F112020110E00A8
:1011B00000380808C83808000000003F00000000A0
:1011C0000070880808887000001C222121221C0061
:1011D00000E010080810E0000000312222110F008A
:1011E000000000C0C000000000000030300000001F
:1011F000000000C0C0000000000080B070000000CF
:1012000000008040201008000001020408102000A7
:1012100040404040404040000404040404040400F2
:101220000008102040800000002010080402010087
:10123000007048080808F000000000303601000087
:10124000C030C828E810E0000718272423140B003A
:101250000000C038E0000000203C230202273820B4
:1012600008F8888888700000203F202020110E0098
:10127000C03008080808380007182020201008008F
:1012800008F808080810E000203F202020100F0078
:1012900008F88888E8081000203F20202320180044
:1012A00008F88888E8081000203F200003000000AC
:1012B000C03008080838000007182020221E02004D
:1012C00008F808000008F808203F210101213F200C
:1012D000000808F8080800000020203F2020000037
:1012E00000000808F8080800C08080807F00000027
:1012F00008F888C028180800203F20012638200060
:1013000008F8080000000000203F202020203000C6
:1013100008F8F800F8F80800203F003F003F2000E0
:1013200008F830C00008F808203F200007183F00E8
:10133000E01008080810E0000F10202020100F0017
:1013400008F808080808F000203F2101010100000A
:10135000E01008080810E0000F18242438504F004F
:1013600008F8888888887000203F2000030C30200F
:1013700000708808080838000038202121221C004D
:10138000180808F8080818000000203F2000000096
:1013900008F808000008F808001F202020201F007F
:1013A0000878880000C83808000007380E010000DF
:1013B000F80800F80008F800033C0700073C0300A9
:1013C000081868808068180820302C03032C30200F
:1013D0000838C800C83808000000203F200000007E
:1013E00010080808C83808002038262120201800D6
:1013F000000000FE020202000000007F40404000AA
:10140000000C30C000000000000000010638C000E1
:1014100000020202FE000000004040407F00000089
:101420000020100804081020000000000000000048
:1014300000000000000000008080808080808080AC
:10144000000204080000000000000000000000008E
:1014500000008080808000000019242222223F208A
:1014600008F8008080000000003F112020110E00CD
:101470000000008080800000000E1120202011005C
:10148000000000808088F800000E112020103F200E
:101490000000808080800000001F22222222130092
:1014A000008080F0888888180020203F20200000DD
:1014B0000000808080808000006B94949493600092
:1014C00008F8008080800000203F210000203F209D
:1014D00000809898000000000020203F202000009D
:1014E000000000809898000000C08080807F00008D
:1014F00008F8000080808000203F24022D3020006A
:10150000000808F8000000000020203F2020000014
:101510008080808080808000203F20003F20003F2E
:10152000008080008080000000203F2100203F20BC
:101530000000808080800000001F202020201F00ED
:10154000808000808000000080FFA12020110E001C
:101550000000008080808000000E112020A0FF800D
:10156000808080008080800020203F2120000100BA
:10157000000080808080800000332424242419000F
:10158000008080E0808000000000001F202000001C
:101590008080000000808000001F202020103F205D
:1015A000808080000080808000010E3008060100ED
:1015B00080800080008080800F300C030C300F0092
:1015C00000808000808080000020312E0E312000BD
:1015D000808080000080808080818E7018060100ED
:1015E00000808080808080000021302C222130000B
:1015F00000000000807C020200000000003F40402C
:1016000000000000FF00000000000000FF000000DC
:101610000002027C800000000040403F000000000B
:1016200000804040800000800000000000010100B8
:101630000000000000000000002F00000000070074
:10164000070000147F147F1400242A7F2A1200232D
:10165000130864620036495522500000000700005C
:1016600000001C224100000041221C000014083E22
:1016700008140008083E0808000000A060000008E8
:10168000080808080000606000000020100804023C
:10169000003E5149453E0000427F400000426151FA
:1016A0004946002141454B31001814127F10002794
:1016B00045454539003C4A49493000017109050357
:1016C00000364949493600064949291E0000363688
:1016D00000000000563600000008142241000014EB
:1016E00014141414000041221408000201510906C8
:1016F000003E4955592E007C1211127C007F494949
:101700004936003E41414122007F4141221C007F79
:1017100049494941007F09090901003E4149497A87
:10172000007F0808087F0000417F41000020404101
:101730003F01007F08142241007F40404040007F6D
:10174000020C027F007F0408107F003E4141413EB1
:10175000007F09090906003E4151215E007F0919F9
:1017600029460046494949310001017F0101003FF6
:101770004040403F001F2040201F003F4038403F76
:1017800000631408146300070870080700615149DA
:10179000454300007F414100000204081020000082
:1017A00041417F00000402010204004040404040EB
:1017B000000001020400002054545478007F484483
:1017C000443800384444442000384444487F0038BA
:1017D0005454541800087E0901020018A4A4A47CE3
:1017E000007F080404780000447D400000408084AD
:1017F0007D00007F102844000000417F4000007CF5
:1018000004180478007C0804047800384444443800
:1018100000FC242424180018242418FC007C08044C
:10182000040800485454542000043F444020003C25
:101830004040207C001C2040201C003C4030403CAC
:10184000004428102844001CA0A0A07C004464543C
:101850004C440000087F41000000007F00000000B1
:10186000417F08000008040810080000241B00083D
:10187000000080008000F8FF80808080FC9FFC9F3B
:1018800080988098FC9FFC9F808080808000000072
:1018900010100000281B0008000060003000FC3F12
:1018A0000300210C30068E030F20EC3FEC3F0C00B0
:1018B000AC013C070C0C0000101000002C1B0008B1
:1018C00000002042A0237C14260CA01FE030000161
:1018D0000C010C410C41EC7F1C011C010C010000AF
:1018E00010100000201B0008000000047E047EC4CD
:1018F0005262521E5201FE01FE01520252FE520677
:101900007E040004000C0000101000001C1B0008E6
:10191000041084308410FC1F840804C84870C81E5A
:10192000B8005A7E4E00683E687EC8C0086000005D
:1019300010100000181B0008000042184208FE0F9B
:1019400042040004FA7EFA02AA1AAB0F930BAA0E05
:10195000A23AFA62823E000010100000301B00081C
:10196000FF0101013109090909897101010101FF23
:10197000FF8080808080809681808080808080FF52
:101980001010000000000000000000000000000037
:101990000000000000000000000000000000000047
:1019A0000000000000000000000000000000000037
:1019B00000000000000080E0F8FCFFFF3F0E020086
:1019C0000000000000000000000000000000000017
:1019D000000080E0F8FEFF7F1F0781F0E0E0C0C05C
:1019E000C080800000000000000000000000C0F087
:1019F000F8FEFFBF0F070100000001010303070706
:101A0000070F0F9FDFFEFEFCFC38000000000107FF
:101A100007070F0F0F1F1E3E3E3C7C7C78F8F0F846
:101A2000FCFE7F1F0F070301000000001008442484
:101A3000129282CA6A32920A2442091000000004FB
:101A40000203076A6A0600000000000000000000B0
:101A500000802000F0D8884838000000001C2622B2
:101A6000160E0004000000000000000000808080CE
:101A700030986C2682422418182442416436190C8E
:101A80000101010000000000000000000000000053
:101A900080C06030180808183060C0800000000066
:101AA000000000000000000000C06030180C0603B9
:101AB00001000000000000000000000103060C18F7
:101AC0003060C0000000000000010101FF000000C4
:101AD00000E0F0181818181818F0E000000000FFD7
:101AE0000101010000000000000000001F1810109C
:101AF000101F1F1010101010101F1F101010180FA3
:101B00000000000000000209259595250902040245
:101B10001149491102040000E7928300E79089000F
:101B2000E7958C00E4B89600E4BDA000E5A5BD00F3
:101B300000000000541B00080000002034000000DA
:101B4000FA0F0008881B000834000020941A0000D7
:101B50000A10000800000000000000000000000063
:101B6000540000205400002000000000000000008D
:101B700000000000FF000000000000000000000066
:081B800000000000000000005D
:04000005080000ED02
:00000001FF
